{
  "contractName": "SimpleEnergyMarket",
  "abi": [
    {
      "inputs": [],
      "stateMutability": "nonpayable",
      "type": "constructor"
    },
    {
      "anonymous": false,
      "inputs": [
        {
          "indexed": false,
          "internalType": "address",
          "name": "seller",
          "type": "address"
        },
        {
          "indexed": false,
          "internalType": "uint256",
          "name": "quantity",
          "type": "uint256"
        },
        {
          "indexed": false,
          "internalType": "uint256",
          "name": "price",
          "type": "uint256"
        },
        {
          "indexed": false,
          "internalType": "string",
          "name": "energyType",
          "type": "string"
        }
      ],
      "name": "OfferAdded",
      "type": "event"
    },
    {
      "inputs": [
        {
          "internalType": "uint256",
          "name": "",
          "type": "uint256"
        }
      ],
      "name": "offers",
      "outputs": [
        {
          "internalType": "address",
          "name": "seller",
          "type": "address"
        },
        {
          "internalType": "uint256",
          "name": "quantity",
          "type": "uint256"
        },
        {
          "internalType": "uint256",
          "name": "price",
          "type": "uint256"
        },
        {
          "internalType": "string",
          "name": "energyType",
          "type": "string"
        }
      ],
      "stateMutability": "view",
      "type": "function"
    },
    {
      "inputs": [],
      "name": "owner",
      "outputs": [
        {
          "internalType": "address",
          "name": "",
          "type": "address"
        }
      ],
      "stateMutability": "view",
      "type": "function"
    },
    {
      "inputs": [
        {
          "internalType": "address",
          "name": "",
          "type": "address"
        }
      ],
      "name": "roles",
      "outputs": [
        {
          "internalType": "string",
          "name": "",
          "type": "string"
        }
      ],
      "stateMutability": "view",
      "type": "function"
    },
    {
      "inputs": [
        {
          "internalType": "string",
          "name": "role",
          "type": "string"
        }
      ],
      "name": "setRole",
      "outputs": [],
      "stateMutability": "nonpayable",
      "type": "function"
    },
    {
      "inputs": [
        {
          "internalType": "uint256",
          "name": "quantity",
          "type": "uint256"
        },
        {
          "internalType": "uint256",
          "name": "price",
          "type": "uint256"
        },
        {
          "internalType": "string",
          "name": "energyType",
          "type": "string"
        }
      ],
      "name": "addOffer",
      "outputs": [],
      "stateMutability": "nonpayable",
      "type": "function"
    },
    {
      "inputs": [],
      "name": "getOffers",
      "outputs": [
        {
          "components": [
            {
              "internalType": "address",
              "name": "seller",
              "type": "address"
            },
            {
              "internalType": "uint256",
              "name": "quantity",
              "type": "uint256"
            },
            {
              "internalType": "uint256",
              "name": "price",
              "type": "uint256"
            },
            {
              "internalType": "string",
              "name": "energyType",
              "type": "string"
            }
          ],
          "internalType": "struct SimpleEnergyMarket.Offer[]",
          "name": "",
          "type": "tuple[]"
        }
      ],
      "stateMutability": "view",
      "type": "function"
    },
    {
      "inputs": [
        {
          "internalType": "uint256",
          "name": "offerIndex",
          "type": "uint256"
        }
      ],
      "name": "buyOffer",
      "outputs": [],
      "stateMutability": "payable",
      "type": "function"
    }
  ],
  "bytecode": "0x608060405234801561001057600080fd5b50336000806101000a81548173ffffffffffffffffffffffffffffffffffffffff021916908373ffffffffffffffffffffffffffffffffffffffff1602179055506113bb806100606000396000f3fe6080604052600436106100705760003560e01c80638e0cfbc21161004e5780638e0cfbc21461010b57806399374642146101345780639ecce70014610171578063ea7cbfe41461018d57610070565b80633ee992ee146100755780638a72ea6a146100a05780638da5cb5b146100e0575b600080fd5b34801561008157600080fd5b5061008a6101b6565b6040516100979190610fd9565b60405180910390f35b3480156100ac57600080fd5b506100c760048036038101906100c29190610b5a565b610311565b6040516100d79493929190610f8d565b60405180910390f35b3480156100ec57600080fd5b506100f56103f9565b6040516101029190610f72565b60405180910390f35b34801561011757600080fd5b50610132600480360381019061012d9190610b19565b61041d565b005b34801561014057600080fd5b5061015b60048036038101906101569190610af0565b6105c2565b6040516101689190610ffb565b60405180910390f35b61018b60048036038101906101869190610b5a565b610662565b005b34801561019957600080fd5b506101b460048036038101906101af9190610b83565b61080a565b005b60606001805480602002602001604051908101604052809291908181526020016000905b8282101561030857838290600052602060002090600402016040518060800160405290816000820160009054906101000a900473ffffffffffffffffffffffffffffffffffffffff1673ffffffffffffffffffffffffffffffffffffffff1673ffffffffffffffffffffffffffffffffffffffff168152602001600182015481526020016002820154815260200160038201805461027790611287565b80601f01602080910402602001604051908101604052809291908181526020018280546102a390611287565b80156102f05780601f106102c5576101008083540402835291602001916102f0565b820191906000526020600020905b8154815290600101906020018083116102d357829003601f168201915b505050505081525050815260200190600101906101da565b50505050905090565b6001818154811061032157600080fd5b90600052602060002090600402016000915090508060000160009054906101000a900473ffffffffffffffffffffffffffffffffffffffff169080600101549080600201549080600301805461037690611287565b80601f01602080910402602001604051908101604052809291908181526020018280546103a290611287565b80156103ef5780601f106103c4576101008083540402835291602001916103ef565b820191906000526020600020905b8154815290600101906020018083116103d257829003601f168201915b5050505050905084565b60008054906101000a900473ffffffffffffffffffffffffffffffffffffffff1681565b6040518060400160405280600881526020017f41636865746575720000000000000000000000000000000000000000000000008152506040516020016104639190610f5b565b604051602081830303815290604052805190602001208160405160200161048a9190610f5b565b60405160208183030381529060405280519060200120148061052c57506040518060400160405280600781526020017f56656e64657572000000000000000000000000000000000000000000000000008152506040516020016104ed9190610f5b565b60405160208183030381529060405280519060200120816040516020016105149190610f5b565b60405160208183030381529060405280519060200120145b61056b576040517f08c379a00000000000000000000000000000000000000000000000000000000081526004016105629061105d565b60405180910390fd5b80600260003373ffffffffffffffffffffffffffffffffffffffff1673ffffffffffffffffffffffffffffffffffffffff16815260200190815260200160002090805190602001906105be9291906109bb565b5050565b600260205280600052604060002060009150905080546105e190611287565b80601f016020809104026020016040519081016040528092919081815260200182805461060d90611287565b801561065a5780601f1061062f5761010080835404028352916020019161065a565b820191906000526020600020905b81548152906001019060200180831161063d57829003601f168201915b505050505081565b60018054905081106106a9576040517f08c379a00000000000000000000000000000000000000000000000000000000081526004016106a09061109d565b60405180910390fd5b6000600182815481106106e5577f4e487b7100000000000000000000000000000000000000000000000000000000600052603260045260246000fd5b906000526020600020906004020190508060010154816002015461070991906111af565b341461074a576040517f08c379a00000000000000000000000000000000000000000000000000000000081526004016107419061103d565b60405180910390fd5b6000816001015411610791576040517f08c379a00000000000000000000000000000000000000000000000000000000081526004016107889061107d565b60405180910390fd5b8060000160009054906101000a900473ffffffffffffffffffffffffffffffffffffffff1673ffffffffffffffffffffffffffffffffffffffff166108fc349081150290604051600060405180830381858888f193505050501580156107fb573d6000803e3d6000fd5b50600081600101819055505050565b60008311801561081a5750600082115b610859576040517f08c379a00000000000000000000000000000000000000000000000000000000081526004016108509061101d565b60405180910390fd5b600081511161089d576040517f08c379a0000000000000000000000000000000000000000000000000000000008152600401610894906110bd565b60405180910390fd5b7f189fd8b6d0cba980d4c553780c1b545dc51244665f56635b94467b2ccd3b034f338484846040516108d29493929190610f8d565b60405180910390a1600160405180608001604052803373ffffffffffffffffffffffffffffffffffffffff16815260200185815260200184815260200183815250908060018154018082558091505060019003906000526020600020906004020160009091909190915060008201518160000160006101000a81548173ffffffffffffffffffffffffffffffffffffffff021916908373ffffffffffffffffffffffffffffffffffffffff160217905550602082015181600101556040820151816002015560608201518160030190805190602001906109b39291906109bb565b505050505050565b8280546109c790611287565b90600052602060002090601f0160209004810192826109e95760008555610a30565b82601f10610a0257805160ff1916838001178555610a30565b82800160010185558215610a30579182015b82811115610a2f578251825591602001919060010190610a14565b5b509050610a3d9190610a41565b5090565b5b80821115610a5a576000816000905550600101610a42565b5090565b6000610a71610a6c8461110e565b6110dd565b905082815260208101848484011115610a8957600080fd5b610a94848285611245565b509392505050565b600081359050610aab81611357565b92915050565b600082601f830112610ac257600080fd5b8135610ad2848260208601610a5e565b91505092915050565b600081359050610aea8161136e565b92915050565b600060208284031215610b0257600080fd5b6000610b1084828501610a9c565b91505092915050565b600060208284031215610b2b57600080fd5b600082013567ffffffffffffffff811115610b4557600080fd5b610b5184828501610ab1565b91505092915050565b600060208284031215610b6c57600080fd5b6000610b7a84828501610adb565b91505092915050565b600080600060608486031215610b9857600080fd5b6000610ba686828701610adb565b9350506020610bb786828701610adb565b925050604084013567ffffffffffffffff811115610bd457600080fd5b610be086828701610ab1565b9150509250925092565b6000610bf68383610eda565b905092915050565b610c0781611209565b82525050565b610c1681611209565b82525050565b6000610c278261114e565b610c318185611171565b935083602082028501610c438561113e565b8060005b85811015610c7f5784840389528151610c608582610bea565b9450610c6b83611164565b925060208a01995050600181019050610c47565b50829750879550505050505092915050565b6000610c9c82611159565b610ca68185611182565b9350610cb6818560208601611254565b610cbf81611346565b840191505092915050565b6000610cd582611159565b610cdf8185611193565b9350610cef818560208601611254565b610cf881611346565b840191505092915050565b6000610d0e82611159565b610d1881856111a4565b9350610d28818560208601611254565b80840191505092915050565b6000610d41602c83611193565b91507f5175616e74697465206574207072697820646f6976656e74206574726520737560008301527f70657269657572732061203000000000000000000000000000000000000000006020830152604082019050919050565b6000610da7601183611193565b91507f4d6f6e74616e7420696e636f72726563740000000000000000000000000000006000830152602082019050919050565b6000610de7600d83611193565b91507f526f6c6520696e76616c696465000000000000000000000000000000000000006000830152602082019050919050565b6000610e27600d83611193565b91507f4f666672652065707569736565000000000000000000000000000000000000006000830152602082019050919050565b6000610e67600e83611193565b91507f4f6666726520696e76616c6964650000000000000000000000000000000000006000830152602082019050919050565b6000610ea7601583611193565b91507f54797065206427656e65726769652072657175697300000000000000000000006000830152602082019050919050565b6000608083016000830151610ef26000860182610bfe565b506020830151610f056020860182610f3d565b506040830151610f186040860182610f3d565b5060608301518482036060860152610f308282610c91565b9150508091505092915050565b610f468161123b565b82525050565b610f558161123b565b82525050565b6000610f678284610d03565b915081905092915050565b6000602082019050610f876000830184610c0d565b92915050565b6000608082019050610fa26000830187610c0d565b610faf6020830186610f4c565b610fbc6040830185610f4c565b8181036060830152610fce8184610cca565b905095945050505050565b60006020820190508181036000830152610ff38184610c1c565b905092915050565b600060208201905081810360008301526110158184610cca565b905092915050565b6000602082019050818103600083015261103681610d34565b9050919050565b6000602082019050818103600083015261105681610d9a565b9050919050565b6000602082019050818103600083015261107681610dda565b9050919050565b6000602082019050818103600083015261109681610e1a565b9050919050565b600060208201905081810360008301526110b681610e5a565b9050919050565b600060208201905081810360008301526110d681610e9a565b9050919050565b6000604051905081810181811067ffffffffffffffff8211171561110457611103611317565b5b8060405250919050565b600067ffffffffffffffff82111561112957611128611317565b5b601f19601f8301169050602081019050919050565b6000819050602082019050919050565b600081519050919050565b600081519050919050565b6000602082019050919050565b600082825260208201905092915050565b600082825260208201905092915050565b600082825260208201905092915050565b600081905092915050565b60006111ba8261123b565b91506111c58361123b565b9250817fffffffffffffffffffffffffffffffffffffffffffffffffffffffffffffffff04831182151516156111fe576111fd6112b9565b5b828202905092915050565b60006112148261121b565b9050919050565b600073ffffffffffffffffffffffffffffffffffffffff82169050919050565b6000819050919050565b82818337600083830152505050565b60005b83811015611272578082015181840152602081019050611257565b83811115611281576000848401525b50505050565b6000600282049050600182168061129f57607f821691505b602082108114156112b3576112b26112e8565b5b50919050565b7f4e487b7100000000000000000000000000000000000000000000000000000000600052601160045260246000fd5b7f4e487b7100000000000000000000000000000000000000000000000000000000600052602260045260246000fd5b7f4e487b7100000000000000000000000000000000000000000000000000000000600052604160045260246000fd5b6000601f19601f8301169050919050565b61136081611209565b811461136b57600080fd5b50565b6113778161123b565b811461138257600080fd5b5056fea26469706673582212206c1b648409107c5fb6ab36d544d8b2b47cd9623e49c0ee5a4cce3ad81b241df464736f6c63430008000033",
  "immutableReferences": {},
  "source": "// SPDX-License-Identifier: MIT\npragma solidity ^0.8.0;\n\ncontract SimpleEnergyMarket {\n    address public owner;\n\n    struct Offer {\n        address seller;\n        uint256 quantity;\n        uint256 price; // en wei\n        string energyType;\n    }\n\n    Offer[] public offers; // Liste des offres\n    mapping(address => string) public roles; // Roles des utilisateurs\n\n    string constant BUYER = \"Acheteur\";\n    string constant SELLER = \"Vendeur\";\n\n    constructor() {\n        owner = msg.sender;\n    }\n\n    // Definir le role de l'utilisateur\n    function setRole(string memory role) public {\n        require(\n            keccak256(abi.encodePacked(role)) == keccak256(abi.encodePacked(BUYER)) ||\n            keccak256(abi.encodePacked(role)) == keccak256(abi.encodePacked(SELLER)),\n            \"Role invalide\"\n        );\n        roles[msg.sender] = role;\n    }\n\n    // Ajouter une offre (uniquement pour les vendeurs)\n    function addOffer(uint256 quantity, uint256 price, string memory energyType) public {\n        require(quantity > 0 && price > 0, \"Quantite et prix doivent etre superieurs a 0\");\n        require(bytes(energyType).length > 0, \"Type d'energie requis\");\n\n        // Log avant d'ajouter l'offre\n    emit OfferAdded(msg.sender, quantity, price, energyType);\n\n        offers.push(Offer(msg.sender, quantity, price, energyType));\n    }\n    event OfferAdded(address seller, uint256 quantity, uint256 price, string energyType);\n\n    \n\n    // Recuperer toutes les offres\n    function getOffers() public view returns (Offer[] memory) {\n        return offers;\n    }\n\n    // Acheter de l'energie (par un acheteur)\n    function buyOffer(uint256 offerIndex) public payable {\n        \n        require(offerIndex < offers.length, \"Offre invalide\");\n\n        Offer storage offer = offers[offerIndex];\n        require(msg.value == offer.price * offer.quantity, \"Montant incorrect\");\n        require(offer.quantity > 0, \"Offre epuisee\");\n\n        // Transfert des fonds et mise a jour de l'offre\n        payable(offer.seller).transfer(msg.value);\n        offer.quantity = 0; // Offre epuisee\n    }\n}",
  "sourcePath": "/Users/ettalhaoui/Desktop/Ethereum_DecentralizedEnergyTrade-master_final/my-blockchain-project/contracts/SimpleEnergyMarket.sol",
  "compiler": {
    "name": "solc",
    "version": "0.8.0+commit.c7dfd78e.Emscripten.clang"
  },
  "schemaVersion": "3.4.16",
  "updatedAt": "2025-01-17T20:57:45.239Z",
  "devdoc": {
    "kind": "dev",
    "methods": {},
    "version": 1
  },
  "userdoc": {
    "kind": "user",
    "methods": {},
    "version": 1
  }
}